:020000040800F2
:1000000000280020C10200081103000811030008A5
:10001000110300081103000811030008000000008C
:1000200000000000000000000000000011030008B4
:10003000110300080000000011030008110300086C
:100040001103000811030008110300081103000840
:100050001103000811030008110300081103000830
:100060001103000811030008110300081103000820
:100070001103000811030008110300081103000810
:100080001103000811030008110300081103000800
:1000900011030008110300081103000811030008F0
:1000A00011030008110300081103000811030008E0
:1000B00011030008110300081103000811030008D0
:1000C00011030008110300081103000811030008C0
:1000D00011030008110300081103000811030008B0
:1000E00011030008110300080000000011030008BC
:1000F0001103000811030008110300081103000890
:10010000110300081103000811030008110300087F
:10011000110300081103000811030008110300086F
:10012000110300081103000811030008110300085F
:1001300010B5054C237833B9044B13B10448AFF321
:1001400000800123237010BD00000020000000008B
:100150001C06000808B5034B1BB103490348AFF365
:10016000008008BD00000000040000201C060008FC
:1001700080B400AF074B9B69064A43F004039361C8
:10018000044B9B69034A43F00803936100BFBD46DB
:1001900080BC70470010024080B582B000AF0223DF
:1001A000BB800123BB713B1D1946144800F06AF95E
:1001B0004FF40053BB800123BB713B1D19460F4810
:1001C00000F060F90223BB800423BB710123FB71A3
:1001D0003B1D19460A4800F055F94FF40053BB8007
:1001E0000423BB710123FB713B1D1946044800F039
:1001F00049F900BF0837BD4680BD00BF0008014077
:10020000000C014080B485B000AF78600023FB6033
:100210000BE00023BB6002E0BB680133BB60BB683E
:10022000FE2BF9DDFB680133FB60FA687B689A42BC
:10023000EFDB00BF00BF1437BD4680BC7047000035
:1002400080B586B000AF1B4A07F10C0307CA83E8EC
:100250000700FFF78DFFFFF79FFF0221164800F010
:1002600090F90346002B0BD10221144800F0A0F9AD
:1002700000BF0221104800F084F90346002BF8D09B
:100280004FF400510C4800F07CF90346012B0CD1CF
:100290004FF40051094800F08BF900BF02210748D4
:1002A00000F06FF90346012BF8D04FF47A70FFF796
:1002B000A9FFD2E73406000800080140000C014005
:1002C0000D488546AFF300800C480D490D4A0023C8
:1002D00002E0D458C4500433C4188C42F9D30A4AFB
:1002E0000A4C002301E013600432A242FBD300F069
:1002F00071F9FFF7A5FFFEE70028002000000020AD
:100300000000002048060008000000201C0000201B
:10031000FEE7000080B483B000AF0346FB80FB889B
:10032000B3F5004F00F0A580B3F5004F00F3A380B4
:10033000B3F5804F00F09B80B3F5804F00F39B80B6
:10034000B3F5005F00F09180B3F5005F00F3938098
:10035000B3F5805F00F08780B3F5805F00F38B809A
:10036000B3F5006F7DD0B3F5006F00F38480B3F573
:10037000806F74D0B3F5806F7DDCB3F5007F6CD0F7
:10038000B3F5007F77DCB3F5807F64D0B3F5807F71
:1003900071DC802B5DD0802B6DDC202B48DC002BAA
:1003A00069DD013B1F2B66D801A252F823F000BF84
:1003B000370400083B040008770400083F040008E5
:1003C0007704000877040008770400084304000855
:1003D0007704000877040008770400087704000811
:1003E0007704000877040008770400084704000831
:1003F00077040008770400087704000877040008F1
:1004000077040008770400087704000877040008E0
:1004100077040008770400087704000877040008D0
:100420007704000877040008770400084B040008EC
:10043000402B0CD01FE000231EE004231CE0082307
:100440001AE00C2318E0102316E0142314E01823FC
:1004500012E01C2310E000230EE004230CE008232C
:100460000AE00C2308E0102306E0142304E018231C
:1004700002E01C2300E0002318460C37BD4680BC78
:10048000704700BF90B585B000AF78603960002339
:10049000BB600023FB733B681B88FF2B01D87B6884
:1004A00001E07B680433BB603B681B881846FFF79C
:1004B00031FF03461A460F239340DA43BB681B689B
:1004C0001A40BB681A603B689B78042B0BD03B68D2
:1004D0009B78052B07D03B689B78062B03D03B68A5
:1004E0009B78072B0ED13B689B78043B9B005AB24C
:1004F0003B68DB785BB213435BB2DBB203F00F0304
:10050000FB732CE03B689B78012B03D03B689B7806
:10051000002B07D13B689B789B00DBB203F00F03F5
:10052000FB731CE03B689B78082B02D10423FB7310
:1005300015E00823FB733B689B78022B07D17B688F
:10054000DB683A6812881A437B68DA6007E07B68E8
:10055000DB683A681288D2431A407B68DA60FC7B19
:100560003B681B881846FFF7D5FE034604FA03F2E2
:10057000BB681B681A43BB681A6000BF1437BD46CE
:1005800090BD80B485B000AF78600B467B807B68FF
:100590009A687B881340002B02D00123FB7301E093
:1005A0000023FB73FB7B18461437BD4680BC7047A5
:1005B00080B483B000AF78600B467B807B68DA68DC
:1005C0007B885A407B68DA6000BF0C37BD4680BC30
:1005D0007047000070B500260C4D0D4C641BA41034
:1005E000A64209D100F01AF800260A4D0A4C641BF5
:1005F000A410A64205D170BD55F8043B98470136BA
:10060000EEE755F8043B98470136F2E7400600084C
:10061000400600084006000844060008F8B500BF80
:10062000F8BC08BC9E467047F8B500BFF8BC08BCD3
:040630009E4670472B
:0C0634000000000000080140010006006A
:040640005501000858
:040644003101000878
:04000005080002C12C
:00000001FF
