:020000040800F2
:100000000028002079010008C9010008C901000882
:10001000C9010008C9010008C9010008000000006A
:10002000000000000000000000000000C9010008FE
:10003000C901000800000000C9010008C90100084A
:10004000C9010008C9010008C9010008C901000868
:10005000C9010008C9010008CD010008F10100082C
:1000600015020008390200085D020008C9010008F5
:10007000C9010008C9010008C9010008C901000838
:10008000C9010008C9010008C9010008C901000828
:10009000C9010008C9010008C9010008810200085F
:1000A000C9010008C9010008C9010008C901000808
:1000B000C9010008C9010008C9010008C9010008F8
:1000C000C9010008C9010008C9010008C9010008E8
:1000D000C9010008C9010008C9010008C9010008D8
:1000E00029030008C901000800000000C901000838
:1000F000C9010008C9010008C9010008C9010008B8
:10010000C9010008C9010008C9010008C9010008A7
:10011000C9010008C9010008C9010008C901000897
:10012000C9010008C9010008C9010008C901000887
:1001300010B5054C237833B9044B13B10448AFF321
:1001400000800123237010BD00000020000000008B
:100150003404000808B5034B1BB103490348AFF34F
:10016000008008BD000000000400002034040008E6
:1001700080B400AFFEE700000D488546AFF3008075
:100180000C480D490D4A002302E0D458C4500433F2
:10019000C4188C42F9D30A4A0A4C002301E01360C8
:1001A0000432A242FBD300F021F9FFF7E1FFFEE7A2
:1001B0000028002000000020000000205404000857
:1001C0000000002058000020FEE7000080B500AFCE
:1001D000054B5B69044A43F001035361034B1B6801
:1001E000984700BF80BD00BF000401401C000020F4
:1001F00080B500AF054B5B69044A43F002035361CD
:10020000034B5B68984700BF80BD00BF00040140FE
:100210001C00002080B500AF054B5B69044A43F029
:1002200004035361034B9B68984700BF80BD00BF28
:10023000000401401C00002080B500AF054B5B6945
:10024000044A43F008035361034BDB68984700BF3F
:1002500080BD00BF000401401C00002080B500AF3D
:10026000054B5B69044A43F010035361034B1B6960
:10027000984700BF80BD00BF000401401C00002063
:1002800080B500AF264B5B6903F02003002B08D03C
:10029000234B5B69224A43F020035361214B5B6986
:1002A00098471F4B5B6903F04003002B08D01C4BA1
:1002B0005B691B4A43F0400353611A4B9B699847A3
:1002C000174B5B6903F08003002B08D0144B5B696C
:1002D000134A43F080035361124BDB699847104B7C
:1002E0005B6903F48073002B08D00D4B5B690C4AEB
:1002F00043F4807353610B4B1B6A9847084B5B694F
:1003000003F40073002B08D0054B5B69044A43F4E7
:1003100000735361034B5B6A984700BF80BD00BF09
:10032000000401401C00002080B500AF2D4B5B692C
:1003300003F48063002B08D02A4B5B69294A43F4FD
:1003400080635361284B9B6A9847264B5B6903F493
:100350000063002B08D0234B5B69224A43F40063FF
:100360005361214BDB6A98471E4B5B6903F4805352
:10037000002B08D01B4B5B691A4A43F4805353612E
:10038000194B1B6B9847174B5B6903F40053002B09
:1003900008D0144B5B69134A43F400535361124B6A
:1003A0005B6B98470F4B5B6903F48043002B08D0CD
:1003B0000C4B5B690B4A43F4804353610A4B9B6BC4
:1003C0009847084B5B6903F40043002B08D0054BAA
:1003D0005B69044A43F400435361034BDB6B98476A
:1003E00000BF80BD000401401C00002070B5002645
:1003F0000C4D0D4C641BA410A64209D100F01AF854
:1004000000260A4D0A4C641BA410A64205D170BDFB
:1004100055F8043B98470136EEE755F8043B9847FA
:100420000136F2E74C0400084C0400084C040008B4
:1004300050040008F8B500BFF8BC08BC9E467047E1
:0C044000F8B500BFF8BC08BC9E46704731
:04044C00550100084E
:04045000310100086E
:040000050800017975
:00000001FF
